S01700004763634170706C69636174696F6E312E737265635B
S11300000C9444000C9456000C9456000C94560026
S11300100C9456000C9456000C9456000C94560004
S11300200C9456000C9456000C9456000C945600F4
S11300300C9456000C9456000C9456000C945600E4
S11300400C9456000C9456000C9456000C945600D4
S11300500C9456000C9456000C9456000C945600C4
S11300600C9456000C945600760086009600A90065
S1130070BC00CF00E200F500050118012B013E0190
S1130080510161017401870111241FBECFEFD8E033
S1130090DEBFCDBF21E0A0E0B1E001C01D92A230DF
S11300A0B207E1F70E9458000C94C0010C940000C0
S11300B08FE384B98AB18C6F8AB98BB184608BB9B0
S11300C08FE99FE00197F1F700C000004A99FECF45
S11300D0109201011092000135C18031910508F0A0
S11300E028C1FC01EC5CFF4F0C94BA0115B88BB12C
S11300F08F778BB98FE385B99FEF23ED80E3915020
S113010020408040E1F700C0000013C115B88BB156
S11301108F778BB986E085B99FEF23ED80E391500B
S113012020408040E1F700C0000003C115B88BB146
S11301308F778BB98BE185B98BB180688BB99FEFD1
S113014023ED80E3915020408040E1F700C000009F
S1130150F0C015B88BB18F778BB98FE085B98BB1AF
S113016080688BB99FEF23ED80E39150204080405D
S1130170E1F700C00000DDC015B88BB18F778BB9F3
S113018086E285B98BB180688BB99FEF23ED80E35C
S1130190915020408040E1F700C00000CAC015B86B
S11301A08BB18F778BB98DE285B98BB180688BB9B0
S11301B09FEF23ED80E3915020408040E1F700C0A1
S11301C00000B7C015B88BB18F778BB98CE385B9B4
S11301D08BB180688BB99FEF23ED80E39150204071
S11301E08040E1F700C00000A4C015B88BB18F7740
S11301F08BB987E085B99FEF23ED80E391502040D0
S11302008040E1F700C0000094C015B88BB18F772F
S11302108BB98FE385B98BB180688BB99FEF23EDE0
S113022080E3915020408040E1F700C0000081C08D
S113023015B88BB18F778BB987E285B98BB180689C
S11302408BB99FEF23ED80E3915020408040E1F78C
S113025000C000006EC015B88BB18F778BB987E3EF
S113026085B98BB180688BB99FEF23ED80E3915002
S113027020408040E1F700C000005BC015B88BB19E
S11302808F778BB98CE385B98BB180688BB99FEF7D
S113029023ED80E3915020408040E1F700C000004E
S11302A048C015B88BB18F778BB989E385B99FEFB7
S11302B023ED80E3915020408040E1F700C000002E
S11302C038C015B88BB18F778BB98EE185B98BB1F6
S11302D080688BB99FEF23ED80E3915020408040EC
S11302E0E1F700C0000025C015B88BB18F778BB93A
S11302F089E385B98BB180688BB99FEF23ED80E3E7
S1130300915020408040E1F700C0000012C015B8B1
S11303108BB18F778BB981E385B98BB180688BB949
S11303209FEF23ED80E3915020408040E1F700C02F
S113033000008091000190910101019690930101C8
S11303408093000180910001909101018031910519
S11303500CF4C3CE8BB180618BB99FEF23ED80E3A6
S1130360915020408040E1F700C000008BB18F7EA7
S11303708BB9FFCFEE0FFF1F0590F491E02D099488
S1070380F894FFCF1B
S9030000FC
