S00D000066696E616C2E737265630D
S11300000C9434000C943E000C943E000C943E007E
S11300100C943E000C943E000C943E000C943E0064
S11300200C943E000C943E000C943E000C943E0054
S11300300C943E000C943E000C943E000C943E0044
S11300400C943E000C943E000C943E000C943E0034
S11300500C943E000C943E000C943E000C943E0024
S11300600C943E000C943E0011241FBECFEFD8E048
S1130070DEBFCDBF0E9440000C9456000C940000DB
S113008080E184B9E1E8F0E080818C60808384E2DF
S113009094EF9093890080938800B19BFECF82E017
S11300A086BB95B180E1892785B9F7CFF894FFCF56
S9030000FC
