:020000020000FC
:1000000058E05EBF5FE55DBF5FEF5ABB57BBC2986C
:100010000E94490008E30E942A000E9449000EE065
:100020000E942A000E94490001E00E942A000E94CA
:10003000490006E00E942A000E944900F0E0E2EA3E
:100040000591003029F00E9434000E944900F8CF49
:100050000C9428000BBBC098C198C29A0E943E0025
:10006000C2980E94410008950BBBC09AC198C29AE1
:100070000E943E00C2980E944100089500000000C6
:1000800008951F9319E00E943E001A95E1F71F9111
:1000900008951F9314E10E9441001A95E1F71F9102
:1000A000089548656C6C6F20576F726C6421000076
:00000001FF
