S01100004C61623150617274322E737265630A
S11300000C9434000C9446000C9446000C94460066
S11300100C9446000C9446000C9446000C94460044
S11300200C9446000C9446000C9446000C94460034
S11300300C9446000C9446000C9446000C94460024
S11300400C9446000C9446000C9446000C94460014
S11300500C9446000C9446000C9446000C94460004
S11300600C9446000C94460011241FBECFEFD8E038
S1130070DEBFCDBF21E0A0E0B1E001C01D92A230FF
S1130080B207E1F70E9448000C9470000C94000041
S113009060E058EE43E084B18F6084B965B981E0D3
S11300A090E090930101809300010FC08FE19EE4E2
S11300B00197F1F700C000008091000190910101C7
S11300C001969093010180930001852F942F209134
S11300D00001309101018217930740F76F5FDECF73
S10700E0F894FFCFBE
S9030000FC
